{
  "_format": "hh-sol-artifact-1",
  "contractName": "Transactions",
  "sourceName": "contracts/Transactions.sol",
  "abi": [
    {
      "anonymous": false,
      "inputs": [
        {
          "indexed": false,
          "internalType": "address",
          "name": "from",
          "type": "address"
        },
        {
          "indexed": false,
          "internalType": "address",
          "name": "receiver",
          "type": "address"
        },
        {
          "indexed": false,
          "internalType": "uint256",
          "name": "amount",
          "type": "uint256"
        },
        {
          "indexed": false,
          "internalType": "string",
          "name": "message",
          "type": "string"
        },
        {
          "indexed": false,
          "internalType": "uint256",
          "name": "timestamp",
          "type": "uint256"
        }
      ],
      "name": "Transfer",
      "type": "event"
    },
    {
      "inputs": [
        {
          "internalType": "address payable",
          "name": "receiver",
          "type": "address"
        },
        {
          "internalType": "uint256",
          "name": "amount",
          "type": "uint256"
        },
        {
          "internalType": "string",
          "name": "message",
          "type": "string"
        }
      ],
      "name": "addToBlockchain",
      "outputs": [],
      "stateMutability": "nonpayable",
      "type": "function"
    },
    {
      "inputs": [],
      "name": "getAllTransactions",
      "outputs": [
        {
          "components": [
            {
              "internalType": "address",
              "name": "sender",
              "type": "address"
            },
            {
              "internalType": "address",
              "name": "receiver",
              "type": "address"
            },
            {
              "internalType": "uint256",
              "name": "amount",
              "type": "uint256"
            },
            {
              "internalType": "string",
              "name": "message",
              "type": "string"
            },
            {
              "internalType": "uint256",
              "name": "timestamp",
              "type": "uint256"
            }
          ],
          "internalType": "struct Transactions.TransferStruct[]",
          "name": "",
          "type": "tuple[]"
        }
      ],
      "stateMutability": "view",
      "type": "function"
    },
    {
      "inputs": [],
      "name": "getTransactionCount",
      "outputs": [
        {
          "internalType": "uint256",
          "name": "",
          "type": "uint256"
        }
      ],
      "stateMutability": "view",
      "type": "function"
    }
  ],
  "bytecode": "0x608060405234801561001057600080fd5b50610aeb806100206000396000f3fe608060405234801561001057600080fd5b50600436106100415760003560e01c806327506f53146100465780632e7700f014610064578063eb12da4a14610082575b600080fd5b61004e61009e565b60405161005b91906107a4565b60405180910390f35b61006c61024f565b60405161007991906107c6565b60405180910390f35b61009c60048036038101906100979190610527565b610258565b005b60606001805480602002602001604051908101604052809291908181526020016000905b8282101561024657838290600052602060002090600502016040518060a00160405290816000820160009054906101000a900473ffffffffffffffffffffffffffffffffffffffff1673ffffffffffffffffffffffffffffffffffffffff1673ffffffffffffffffffffffffffffffffffffffff1681526020016001820160009054906101000a900473ffffffffffffffffffffffffffffffffffffffff1673ffffffffffffffffffffffffffffffffffffffff1673ffffffffffffffffffffffffffffffffffffffff168152602001600282015481526020016003820180546101ab9061096e565b80601f01602080910402602001604051908101604052809291908181526020018280546101d79061096e565b80156102245780601f106101f957610100808354040283529160200191610224565b820191906000526020600020905b81548152906001019060200180831161020757829003601f168201915b50505050508152602001600482015481525050815260200190600101906100c2565b50505050905090565b60008054905090565b60008081548092919061026a906109a0565b919050555060016040518060a001604052803373ffffffffffffffffffffffffffffffffffffffff1681526020018573ffffffffffffffffffffffffffffffffffffffff16815260200184815260200183815260200142815250908060018154018082558091505060019003906000526020600020906005020160009091909190915060008201518160000160006101000a81548173ffffffffffffffffffffffffffffffffffffffff021916908373ffffffffffffffffffffffffffffffffffffffff16021790555060208201518160010160006101000a81548173ffffffffffffffffffffffffffffffffffffffff021916908373ffffffffffffffffffffffffffffffffffffffff1602179055506040820151816002015560608201518160030190805190602001906103a19291906103f2565b506080820151816004015550507fc4b32d7ff75a51e487f3cbb5d3202f2efecca1f4c2b987e0039c1d3220b48a8333848484426040516103e595949392919061074a565b60405180910390a1505050565b8280546103fe9061096e565b90600052602060002090601f0160209004810192826104205760008555610467565b82601f1061043957805160ff1916838001178555610467565b82800160010185558215610467579182015b8281111561046657825182559160200191906001019061044b565b5b5090506104749190610478565b5090565b5b80821115610491576000816000905550600101610479565b5090565b60006104a86104a384610812565b6107e1565b9050828152602081018484840111156104c057600080fd5b6104cb84828561092c565b509392505050565b6000813590506104e281610a87565b92915050565b600082601f8301126104f957600080fd5b8135610509848260208601610495565b91505092915050565b60008135905061052181610a9e565b92915050565b60008060006060848603121561053c57600080fd5b600061054a868287016104d3565b935050602061055b86828701610512565b925050604084013567ffffffffffffffff81111561057857600080fd5b610584868287016104e8565b9150509250925092565b600061059a83836106b6565b905092915050565b6105ab816108f6565b82525050565b6105ba816108a8565b82525050565b6105c9816108a8565b82525050565b60006105da82610852565b6105e48185610875565b9350836020820285016105f685610842565b8060005b858110156106325784840389528151610613858261058e565b945061061e83610868565b925060208a019950506001810190506105fa565b50829750879550505050505092915050565b600061064f8261085d565b6106598185610886565b935061066981856020860161093b565b61067281610a76565b840191505092915050565b60006106888261085d565b6106928185610897565b93506106a281856020860161093b565b6106ab81610a76565b840191505092915050565b600060a0830160008301516106ce60008601826105b1565b5060208301516106e160208601826105b1565b5060408301516106f4604086018261072c565b506060830151848203606086015261070c8282610644565b9150506080830151610721608086018261072c565b508091505092915050565b610735816108ec565b82525050565b610744816108ec565b82525050565b600060a08201905061075f60008301886105c0565b61076c60208301876105a2565b610779604083018661073b565b818103606083015261078b818561067d565b905061079a608083018461073b565b9695505050505050565b600060208201905081810360008301526107be81846105cf565b905092915050565b60006020820190506107db600083018461073b565b92915050565b6000604051905081810181811067ffffffffffffffff8211171561080857610807610a47565b5b8060405250919050565b600067ffffffffffffffff82111561082d5761082c610a47565b5b601f19601f8301169050602081019050919050565b6000819050602082019050919050565b600081519050919050565b600081519050919050565b6000602082019050919050565b600082825260208201905092915050565b600082825260208201905092915050565b600082825260208201905092915050565b60006108b3826108cc565b9050919050565b60006108c5826108cc565b9050919050565b600073ffffffffffffffffffffffffffffffffffffffff82169050919050565b6000819050919050565b600061090182610908565b9050919050565b60006109138261091a565b9050919050565b6000610925826108cc565b9050919050565b82818337600083830152505050565b60005b8381101561095957808201518184015260208101905061093e565b83811115610968576000848401525b50505050565b6000600282049050600182168061098657607f821691505b6020821081141561099a57610999610a18565b5b50919050565b60006109ab826108ec565b91507fffffffffffffffffffffffffffffffffffffffffffffffffffffffffffffffff8214156109de576109dd6109e9565b5b600182019050919050565b7f4e487b7100000000000000000000000000000000000000000000000000000000600052601160045260246000fd5b7f4e487b7100000000000000000000000000000000000000000000000000000000600052602260045260246000fd5b7f4e487b7100000000000000000000000000000000000000000000000000000000600052604160045260246000fd5b6000601f19601f8301169050919050565b610a90816108ba565b8114610a9b57600080fd5b50565b610aa7816108ec565b8114610ab257600080fd5b5056fea2646970667358221220e2978c6001cd78b3bd97fcb9c126d8e4029b7b9bdf58037ca71a0b58dee69a9664736f6c63430008000033",
  "linkReferences": {},
  "deployedLinkReferences": {}
}